:1004EC00013700012100C100042600000000042F88
:1004FC0040A00000022A0000012500012E0001345A
:10050C0000013300013500013800013900012300DE
:0C051C00012400012C00012D0001220030
:0C05E7001508150815081508150815085A
:0105F30022E5
:070587001205F47F0A7E005B
:10058E00D3EF9400EE9400400DE4FD0DBD1BFCEF87
:06059E001F70ED1E80EA53
:0105A4002234
:0905F4002098FD2099FA8F99224C
:1005D700758DFD758BFDD28E759850D2AFD2AC223A
:1005BF00E536B40105E4F58080F6E536B40205753D
:0805CF0080FF80F67580FF2219
:10052900E5366403702F75377FFCECC3940850F0EF
:100539008537807FE87E0312058EAF377801EF0893
:10054900800103D8FDF537E536640360057580FF42
:0505590080CE0C80D5EE
:01055E00227A
:1004AA00758921E536B4041A758CFF758AF7D2AFBF
:1004BA00D2A9D28CE536640460FAC28CE4F52175BF
:1004CA0080FFE536B4051A758CFF758AF7D2AFD26C
:1004DA00A9D28CE536640560FAC28CE4F5217580F0
:0204EA00FF22EF
:10055F00758922758C47758A47D28CD2A9D2AFE59F
:10056F0036640660FAC28CE4F529F528F527F526DE
:08057F00F52AF52B7580FF221F
:10046700E4FF75250220A007AE250525EE70F612DC
:1004770005E71205E71205E7E4F52E30A003752E10
:100487000175250230A007AE250525EE70F6E52596
:100497006401600EE53425E0F534E52E42340FBFE4
:0204A70008C08B
:0104A9002230
:10033F00E536640760030203DAC2A07FB4FE12053C
:10034F008ED2A01205E71205E71205E71205E7D2D4
:10035F00A020A0DC75250220A007AF250525EF7092
:10036F00F675250230A007AF250525EF70F61204AC
:10037F006785342C12046785342D12046785343851
:10038F00120467853439120467853422D2A0E53808
:10039F002539252C252DF52EB52295853833853910
:1003AF0035852C23852D247FEE120587AF3312055B
:1003BF0087AF35120587AF23120587AF2412058744
:0C03CF007FFF120587E4F53602033F2291
:1005A50075B8107589211205D71205BF12052912D4
:0A05B50004AA12055F12033F80EF55
:0300230002000ECA
:10000E00309808859936C298853699309902C299EA
:01001E0032AF
:03000B000201D51A
:1001D500C0E0C0F0C083C082C0D075D000C000C0F0
:1001E50001C002C003C004C005C006C007E53664EF
:1001F500047025C28C758CFF758AF7D28C0521E5B4
:1002050021C394644003752100E521D3945A500518
:100215007580FF80036380FFE53664057025C28C19
:10022500758CFF758AF7D28C0521E521C39464404E
:1002350003752100E521D3943C50057580FF8003AB
:100245006380FFE53664066003020324AF29AE2808
:10025500AD27AC26FBFA7980783E12002D8F298ECA
:10026500288D278C26052BE52B7002052AAF32AE8B
:1002750031AD30AC2FAB29AA28A927A82612011E1B
:100285007002F580E4FFFE7D207C41AB29AA28A9F8
:1002950027A82612011E700B7580FFF529F528F594
:1002A50027F526E52B6464452A7036200033F52AA8
:1002B500F52BAF32AE31AD30AC2FFBFA7980783EFD
:1002C50012002D8F328E318D308C2FE4FFFE7D1C78
:1002D5007C41AB32AA31A930A82F12011E7002B29F
:1002E50000E52B6464452A7036300033F52AF52B7A
:1002F500AF32AE31AD30AC2FFBFA7980783E1200CB
:10030500298F328E318D308C2FE4FFFE7D807C3E2F
:10031500AB32AA31A930A82F12011E7002B200D04B
:1003250007D006D005D004D003D002D001D000D02C
:0A033500D0D082D083D0F0D0E032A7
:100026000201C0E86480F8E933E83360110460F047
:10003600ED33EC337009E8FCE9FDEAFEEBFF220440
:1000460060DED3EB9FEA9EE99DE8C2E78CF0C2F73B
:1000560095F0400CE8CCF8E9CDF9EACEFAEBCFFB07
:1000660012018B85D0F05804700320D5B3E80470D4
:10007600075002B2D50201CA92D5EC0460F7E4CC6F
:10008600C0E0C398F8603B94186008400DD0E0FBD0
:100096000201A2E4FBFAC9FC8028E830E406E4C9C0
:1000A600FBE4CAFCE830E305E4C9CACBFCE8540724
:1000B6006010F8C3E913F9EA13FAEB13FBEC13FC2F
:1000C600D8F130F52FC3E49CFCEF9BFFEE9AFEEDD2
:1000D60099FDD0E0FBEF4E4D4C701222DB0302017E
:1000E600C7EC2CFCEF33FFEE33FEED33FDED30E7CE
:1000F600EB0201A2EF2BFFEE3AFEED39FDD0E0FB5D
:1001060050130BBB00030201CAED13FDEE13FEEF05
:0801160013FFEC13FC0201A22F
:10011E0074F8CC6480CCC86480C8F582046043C394
:10012E00EB9FF5F0EA9E42F0E99D42F0E89C45F027
:10013E0060305018E5825FFFE582F42B5582FB504C
:10014E00210ABA001D09B90019088016E5825BFB69
:10015E00E582F42F5582FF50090EBE00050DBD003D
:10016E00010CC3EB9FF5F0EA9E42F0E99D42F0E8E8
:0D017E009C45F06007CC4820E701B3EC225F
:10018B00E9D2E7C933E833F892D5EDD2E7CD33ECBA
:07019B0033FC5002B2D52233
:1001A200EC30E7100FBF000C0EBE00080DBD0004BE
:1001B2000BEB6014A2D5EB13FCED92E7FD2274FF6A
:1001C200FCFDFEFF22E480F8A2D574FF13FC7D80C3
:0301D200E480EFD7
:030000000203DB1D
:0C03DB00787FE4F6D8FD75813902042219
:1003E7000205A5E493A3F8E493A34003F68001F282
:1003F70008DFF48029E493A3F85407240CC8C33317
:10040700C4540F4420C8834004F456800146F6DFE5
:10041700E4800B01020408102040809004ECE47E85
:10042700019360BCA3FF543F30E509541FFEE493DA
:10043700A360010ECF54C025E060A840B8E493A3A1
:10044700FAE493A3F8E493A3C8C582C8CAC583CACC
:10045700F0A3C8C582C8CAC583CADFE9DEE780BE84
:0105280000D2
:00000001FF
